{
    "tests/cancun/eip7516_blobgasfee/test_blobgasfee_opcode.py::test_blobbasefee_during_fork[fork_ShanghaiToCancunAtTime15k-blockchain_test]": {
        "network": "ShanghaiToCancunAtTime15k",
        "genesisBlockHeader": {
            "parentHash": "0x0000000000000000000000000000000000000000000000000000000000000000",
            "uncleHash": "0x1dcc4de8dec75d7aab85b567b6ccd41ad312451b948a7413f0a142fd40d49347",
            "coinbase": "0x0000000000000000000000000000000000000000",
            "stateRoot": "0xb4798a02f839467fd8001f1ddd536c9255225c60e8b8059f309ab24803e474f4",
            "transactionsTrie": "0x56e81f171bcc55a6ff8345e692c0f86e5b48e01b996cadc001622fb5e363b421",
            "receiptTrie": "0x56e81f171bcc55a6ff8345e692c0f86e5b48e01b996cadc001622fb5e363b421",
            "bloom": "0x00000000000000000000000000000000000000000000000000000000000000000000000000000000000000000000000000000000000000000000000000000000000000000000000000000000000000000000000000000000000000000000000000000000000000000000000000000000000000000000000000000000000000000000000000000000000000000000000000000000000000000000000000000000000000000000000000000000000000000000000000000000000000000000000000000000000000000000000000000000000000000000000000000000000000000000000000000000000000000000000000000000000000000000000000000000",
            "difficulty": "0x00",
            "number": "0x00",
            "gasLimit": "0x016345785d8a0000",
            "gasUsed": "0x00",
            "timestamp": "0x00",
            "extraData": "0x00",
            "mixHash": "0x0000000000000000000000000000000000000000000000000000000000000000",
            "nonce": "0x0000000000000000",
            "baseFeePerGas": "0x07",
            "withdrawalsRoot": "0x56e81f171bcc55a6ff8345e692c0f86e5b48e01b996cadc001622fb5e363b421",
            "hash": "0x95586fb5cc37fcf91c35ff2bb388ffe5feb323f9e0086eaf507d0723460e0350"
        },
        "pre": {
            "0x000f3df6d732807ef1319fb7b8bb8522d0beac02": {
                "nonce": "0x01",
                "balance": "0x00",
                "code": "0x3373fffffffffffffffffffffffffffffffffffffffe14604d57602036146024575f5ffd5b5f35801560495762001fff810690815414603c575f5ffd5b62001fff01545f5260205ff35b5f5ffd5b62001fff42064281555f359062001fff015500",
                "storage": {}
            },
            "0xa94f5374fce5edbc8e2a8697c15331677e6ebf0b": {
                "nonce": "0x00",
                "balance": "0x1d6329f1c35ca4bfabb9f5610000000000",
                "code": "0x",
                "storage": {}
            },
            "0x0000000000000000000000000000000000000100": {
                "nonce": "0x00",
                "balance": "0x00",
                "code": "0x6000600060006000600061020061fffff14355",
                "storage": {
                    "0x01": "0xff",
                    "0x02": "0xff",
                    "0x03": "0xff"
                }
            },
            "0x0000000000000000000000000000000000000200": {
                "nonce": "0x00",
                "balance": "0x00",
                "code": "0x4a00",
                "storage": {}
            }
        },
        "postState": {
            "0x0000000000000000000000000000000000000100": {
                "nonce": "0x00",
                "balance": "0x00",
                "code": "0x6000600060006000600061020061fffff14355",
                "storage": {
                    "0x03": "0x01"
                }
            },
            "0x0000000000000000000000000000000000000200": {
                "nonce": "0x00",
                "balance": "0x00",
                "code": "0x4a00",
                "storage": {}
            },
            "0x000f3df6d732807ef1319fb7b8bb8522d0beac02": {
                "nonce": "0x01",
                "balance": "0x00",
                "code": "0x3373fffffffffffffffffffffffffffffffffffffffe14604d57602036146024575f5ffd5b5f35801560495762001fff810690815414603c575f5ffd5b62001fff01545f5260205ff35b5f5ffd5b62001fff42064281555f359062001fff015500",
                "storage": {
                    "0x1a99": "0x3a98"
                }
            },
            "0x2adc25665018aa1fe0e6bc666dac8fc2697ff9ba": {
                "nonce": "0x00",
                "balance": "0xbc935690dc85",
                "code": "0x",
                "storage": {}
            },
            "0xa94f5374fce5edbc8e2a8697c15331677e6ebf0b": {
                "nonce": "0x03",
                "balance": "0x1d6329f1c35ca4bfabb9f4a46ca958fe00",
                "code": "0x",
                "storage": {}
            }
        },
        "lastblockhash": "0x644fa77570cfda6020d35f108093c9cee2c41d3a7b0c2ff3889c83cdd665a370",
        "genesisRLP": "0xf9021df90217a00000000000000000000000000000000000000000000000000000000000000000a01dcc4de8dec75d7aab85b567b6ccd41ad312451b948a7413f0a142fd40d49347940000000000000000000000000000000000000000a0b4798a02f839467fd8001f1ddd536c9255225c60e8b8059f309ab24803e474f4a056e81f171bcc55a6ff8345e692c0f86e5b48e01b996cadc001622fb5e363b421a056e81f171bcc55a6ff8345e692c0f86e5b48e01b996cadc001622fb5e363b421b9010000000000000000000000000000000000000000000000000000000000000000000000000000000000000000000000000000000000000000000000000000000000000000000000000000000000000000000000000000000000000000000000000000000000000000000000000000000000000000000000000000000000000000000000000000000000000000000000000000000000000000000000000000000000000000000000000000000000000000000000000000000000000000000000000000000000000000000000000000000000000000000000000000000000000000000000000000000000000000000000000000000000000000000000000000000000808088016345785d8a0000808000a0000000000000000000000000000000000000000000000000000000000000000088000000000000000007a056e81f171bcc55a6ff8345e692c0f86e5b48e01b996cadc001622fb5e363b421c0c0c0",
        "blocks": [
            {
                "blockHeader": {
                    "parentHash": "0x95586fb5cc37fcf91c35ff2bb388ffe5feb323f9e0086eaf507d0723460e0350",
                    "uncleHash": "0x1dcc4de8dec75d7aab85b567b6ccd41ad312451b948a7413f0a142fd40d49347",
                    "coinbase": "0x2adc25665018aa1fe0e6bc666dac8fc2697ff9ba",
                    "stateRoot": "0xb250ccc50624c81ca684f79af8e0303e9f105e5bd022356b66d91664c7b05d76",
                    "transactionsTrie": "0x0fe91412a1972bfc336f46726e2d5616b033ad0b7b58b5abb3cf596c18c936fc",
                    "receiptTrie": "0xfe1031d3afe85b36192c7e26089083ffcadf2a006869c9d3eaae3056dceaea4b",
                    "bloom": "0x00000000000000000000000000000000000000000000000000000000000000000000000000000000000000000000000000000000000000000000000000000000000000000000000000000000000000000000000000000000000000000000000000000000000000000000000000000000000000000000000000000000000000000000000000000000000000000000000000000000000000000000000000000000000000000000000000000000000000000000000000000000000000000000000000000000000000000000000000000000000000000000000000000000000000000000000000000000000000000000000000000000000000000000000000000000",
                    "difficulty": "0x00",
                    "number": "0x01",
                    "gasLimit": "0x016345785d8a0000",
                    "gasUsed": "0x015d0e",
                    "timestamp": "0x1d4c",
                    "extraData": "0x",
                    "mixHash": "0x0000000000000000000000000000000000000000000000000000000000000000",
                    "nonce": "0x0000000000000000",
                    "baseFeePerGas": "0x07",
                    "withdrawalsRoot": "0x56e81f171bcc55a6ff8345e692c0f86e5b48e01b996cadc001622fb5e363b421",
                    "hash": "0xa286b0c563631db6e565b0faaafd82c1759d8b5cac9329f0a26350f938318091"
                },
                "transactions": [
                    {
                        "type": "0x00",
                        "chainId": "0x01",
                        "nonce": "0x00",
                        "gasPrice": "0x3b9aca00",
                        "gasLimit": "0x0f4240",
                        "to": "0x0000000000000000000000000000000000000100",
                        "value": "0x00",
                        "data": "0x",
                        "v": "0x25",
                        "r": "0x78bda1e1cb92b405bf1c49f292286f622ebd05ea52b0d7793e7e614c560c86d3",
                        "s": "0x7e9b6734e2203cd58a048e8b1750bea1d9ccdf10f5d612dad80550fdd2081c4a",
                        "sender": "0xa94f5374fce5edbc8e2a8697c15331677e6ebf0b"
                    }
                ],
                "uncleHeaders": [],
                "withdrawals": [],
                "rlp": "0xf90289f9021ca095586fb5cc37fcf91c35ff2bb388ffe5feb323f9e0086eaf507d0723460e0350a01dcc4de8dec75d7aab85b567b6ccd41ad312451b948a7413f0a142fd40d49347942adc25665018aa1fe0e6bc666dac8fc2697ff9baa0b250ccc50624c81ca684f79af8e0303e9f105e5bd022356b66d91664c7b05d76a00fe91412a1972bfc336f46726e2d5616b033ad0b7b58b5abb3cf596c18c936fca0fe1031d3afe85b36192c7e26089083ffcadf2a006869c9d3eaae3056dceaea4bb9010000000000000000000000000000000000000000000000000000000000000000000000000000000000000000000000000000000000000000000000000000000000000000000000000000000000000000000000000000000000000000000000000000000000000000000000000000000000000000000000000000000000000000000000000000000000000000000000000000000000000000000000000000000000000000000000000000000000000000000000000000000000000000000000000000000000000000000000000000000000000000000000000000000000000000000000000000000000000000000000000000000000000000000000000000000000800188016345785d8a000083015d0e821d4c80a0000000000000000000000000000000000000000000000000000000000000000088000000000000000007a056e81f171bcc55a6ff8345e692c0f86e5b48e01b996cadc001622fb5e363b421f866f86480843b9aca00830f4240940000000000000000000000000000000000000100808025a078bda1e1cb92b405bf1c49f292286f622ebd05ea52b0d7793e7e614c560c86d3a07e9b6734e2203cd58a048e8b1750bea1d9ccdf10f5d612dad80550fdd2081c4ac0c0",
                "blocknumber": "1"
            },
            {
                "blockHeader": {
                    "parentHash": "0xa286b0c563631db6e565b0faaafd82c1759d8b5cac9329f0a26350f938318091",
                    "uncleHash": "0x1dcc4de8dec75d7aab85b567b6ccd41ad312451b948a7413f0a142fd40d49347",
                    "coinbase": "0x2adc25665018aa1fe0e6bc666dac8fc2697ff9ba",
                    "stateRoot": "0x991d2674e0052bcffa34bbcd085165758f6902d09c46af4aae29658f644e4be9",
                    "transactionsTrie": "0xbbf0ef003e447b033280e14920471e3d1079e0420ff336551a69bc058282826f",
                    "receiptTrie": "0xfe1031d3afe85b36192c7e26089083ffcadf2a006869c9d3eaae3056dceaea4b",
                    "bloom": "0x00000000000000000000000000000000000000000000000000000000000000000000000000000000000000000000000000000000000000000000000000000000000000000000000000000000000000000000000000000000000000000000000000000000000000000000000000000000000000000000000000000000000000000000000000000000000000000000000000000000000000000000000000000000000000000000000000000000000000000000000000000000000000000000000000000000000000000000000000000000000000000000000000000000000000000000000000000000000000000000000000000000000000000000000000000000",
                    "difficulty": "0x00",
                    "number": "0x02",
                    "gasLimit": "0x016345785d8a0000",
                    "gasUsed": "0x015d0e",
                    "timestamp": "0x3a97",
                    "extraData": "0x",
                    "mixHash": "0x0000000000000000000000000000000000000000000000000000000000000000",
                    "nonce": "0x0000000000000000",
                    "baseFeePerGas": "0x07",
                    "withdrawalsRoot": "0x56e81f171bcc55a6ff8345e692c0f86e5b48e01b996cadc001622fb5e363b421",
                    "hash": "0x5c196386b03ef512210032b086effd4c4aae0bd59d6aba847a66535d082b9bad"
                },
                "transactions": [
                    {
                        "type": "0x00",
                        "chainId": "0x01",
                        "nonce": "0x01",
                        "gasPrice": "0x3b9aca00",
                        "gasLimit": "0x0f4240",
                        "to": "0x0000000000000000000000000000000000000100",
                        "value": "0x00",
                        "data": "0x",
                        "v": "0x25",
                        "r": "0x5a305eeb6255567555610c96fec7c90e285aef7d705790174cacff4095e58b5a",
                        "s": "0x09a597b4bbf42f22c544ca3b6e8988ee7c304bb0c9c2470dba9ca1c958625402",
                        "sender": "0xa94f5374fce5edbc8e2a8697c15331677e6ebf0b"
                    }
                ],
                "uncleHeaders": [],
                "withdrawals": [],
                "rlp": "0xf90289f9021ca0a286b0c563631db6e565b0faaafd82c1759d8b5cac9329f0a26350f938318091a01dcc4de8dec75d7aab85b567b6ccd41ad312451b948a7413f0a142fd40d49347942adc25665018aa1fe0e6bc666dac8fc2697ff9baa0991d2674e0052bcffa34bbcd085165758f6902d09c46af4aae29658f644e4be9a0bbf0ef003e447b033280e14920471e3d1079e0420ff336551a69bc058282826fa0fe1031d3afe85b36192c7e26089083ffcadf2a006869c9d3eaae3056dceaea4bb9010000000000000000000000000000000000000000000000000000000000000000000000000000000000000000000000000000000000000000000000000000000000000000000000000000000000000000000000000000000000000000000000000000000000000000000000000000000000000000000000000000000000000000000000000000000000000000000000000000000000000000000000000000000000000000000000000000000000000000000000000000000000000000000000000000000000000000000000000000000000000000000000000000000000000000000000000000000000000000000000000000000000000000000000000000000000800288016345785d8a000083015d0e823a9780a0000000000000000000000000000000000000000000000000000000000000000088000000000000000007a056e81f171bcc55a6ff8345e692c0f86e5b48e01b996cadc001622fb5e363b421f866f86401843b9aca00830f4240940000000000000000000000000000000000000100808025a05a305eeb6255567555610c96fec7c90e285aef7d705790174cacff4095e58b5aa009a597b4bbf42f22c544ca3b6e8988ee7c304bb0c9c2470dba9ca1c958625402c0c0",
                "blocknumber": "2"
            },
            {
                "blockHeader": {
                    "parentHash": "0x5c196386b03ef512210032b086effd4c4aae0bd59d6aba847a66535d082b9bad",
                    "uncleHash": "0x1dcc4de8dec75d7aab85b567b6ccd41ad312451b948a7413f0a142fd40d49347",
                    "coinbase": "0x2adc25665018aa1fe0e6bc666dac8fc2697ff9ba",
                    "stateRoot": "0xe6e41f59b0aace3ce362e5027be4c0efc9ccfe854eb8658e12687bdb134e2f82",
                    "transactionsTrie": "0x0b07513b1742c08217da6ca0ee521005b23f3b6ea638c6a368132e4df359e09e",
                    "receiptTrie": "0x8759b855bac843148bb8ba7fca9b4708e4b19ca7569c4d8cdf0db1bcf59ddbd0",
                    "bloom": "0x00000000000000000000000000000000000000000000000000000000000000000000000000000000000000000000000000000000000000000000000000000000000000000000000000000000000000000000000000000000000000000000000000000000000000000000000000000000000000000000000000000000000000000000000000000000000000000000000000000000000000000000000000000000000000000000000000000000000000000000000000000000000000000000000000000000000000000000000000000000000000000000000000000000000000000000000000000000000000000000000000000000000000000000000000000000",
                    "difficulty": "0x00",
                    "number": "0x03",
                    "gasLimit": "0x016345785d8a0000",
                    "gasUsed": "0x6fd1",
                    "timestamp": "0x3a98",
                    "extraData": "0x",
                    "mixHash": "0x0000000000000000000000000000000000000000000000000000000000000000",
                    "nonce": "0x0000000000000000",
                    "baseFeePerGas": "0x07",
                    "withdrawalsRoot": "0x56e81f171bcc55a6ff8345e692c0f86e5b48e01b996cadc001622fb5e363b421",
                    "blobGasUsed": "0x00",
                    "excessBlobGas": "0x00",
                    "parentBeaconBlockRoot": "0x0000000000000000000000000000000000000000000000000000000000000000",
                    "hash": "0x644fa77570cfda6020d35f108093c9cee2c41d3a7b0c2ff3889c83cdd665a370"
                },
                "transactions": [
                    {
                        "type": "0x00",
                        "chainId": "0x01",
                        "nonce": "0x02",
                        "gasPrice": "0x3b9aca00",
                        "gasLimit": "0x0f4240",
                        "to": "0x0000000000000000000000000000000000000100",
                        "value": "0x00",
                        "data": "0x",
                        "v": "0x26",
                        "r": "0x80830b778f8433c8b58035d9c099d6aa7cd892b3dc68569b703da1eb91add652",
                        "s": "0x6d52d9f26efdcdf3f4087f02cd961cae2fd7a6773140e4bf867e49aacaf9d87f",
                        "sender": "0xa94f5374fce5edbc8e2a8697c15331677e6ebf0b"
                    }
                ],
                "uncleHeaders": [],
                "withdrawals": [],
                "rlp": "0xf902abf9023ea05c196386b03ef512210032b086effd4c4aae0bd59d6aba847a66535d082b9bada01dcc4de8dec75d7aab85b567b6ccd41ad312451b948a7413f0a142fd40d49347942adc25665018aa1fe0e6bc666dac8fc2697ff9baa0e6e41f59b0aace3ce362e5027be4c0efc9ccfe854eb8658e12687bdb134e2f82a00b07513b1742c08217da6ca0ee521005b23f3b6ea638c6a368132e4df359e09ea08759b855bac843148bb8ba7fca9b4708e4b19ca7569c4d8cdf0db1bcf59ddbd0b9010000000000000000000000000000000000000000000000000000000000000000000000000000000000000000000000000000000000000000000000000000000000000000000000000000000000000000000000000000000000000000000000000000000000000000000000000000000000000000000000000000000000000000000000000000000000000000000000000000000000000000000000000000000000000000000000000000000000000000000000000000000000000000000000000000000000000000000000000000000000000000000000000000000000000000000000000000000000000000000000000000000000000000000000000000000000800388016345785d8a0000826fd1823a9880a0000000000000000000000000000000000000000000000000000000000000000088000000000000000007a056e81f171bcc55a6ff8345e692c0f86e5b48e01b996cadc001622fb5e363b4218080a00000000000000000000000000000000000000000000000000000000000000000f866f86402843b9aca00830f4240940000000000000000000000000000000000000100808026a080830b778f8433c8b58035d9c099d6aa7cd892b3dc68569b703da1eb91add652a06d52d9f26efdcdf3f4087f02cd961cae2fd7a6773140e4bf867e49aacaf9d87fc0c0",
                "blocknumber": "3"
            }
        ],
        "sealEngine": "NoProof",
        "_info": {
            "hash": "0x25128195188fd838edb4afc7c18f929346ee2c2934b0e62208b1688def4cbc21",
            "comment": "`execution-spec-tests` generated test",
            "filling-transition-tool": "evm version 1.14.8-unstable-766ce230-20240723",
            "description": "Test function documentation:\n\n    Tests that the BLOBBASEFEE opcode results on exception when called before the fork and\n    succeeds when called after the fork.",
            "url": "https://github.com/ethereum/execution-spec-tests/tree/v3.0.0/tests/cancun/eip7516_blobgasfee/test_blobgasfee_opcode.py#L198",
            "reference-spec": "https://github.com/ethereum/EIPs/blob/master/EIPS/eip-7516.md",
            "reference-spec-version": "2ade0452efe8124378f35284676ddfd16dd56ecd"
        }
    }
}