{
    "tests/cancun/eip4788_beacon_root/test_beacon_root_contract.py::test_beacon_root_selfdestruct[fork_Cancun-blockchain_test-timestamp_12]": {
        "network": "Cancun",
        "genesisBlockHeader": {
            "parentHash": "0x0000000000000000000000000000000000000000000000000000000000000000",
            "uncleHash": "0x1dcc4de8dec75d7aab85b567b6ccd41ad312451b948a7413f0a142fd40d49347",
            "coinbase": "0x0000000000000000000000000000000000000000",
            "stateRoot": "0xf74b529b09622fafb3bef17c6ac4db558ce49779575eb589a3d2fb5831978ed4",
            "transactionsTrie": "0x56e81f171bcc55a6ff8345e692c0f86e5b48e01b996cadc001622fb5e363b421",
            "receiptTrie": "0x56e81f171bcc55a6ff8345e692c0f86e5b48e01b996cadc001622fb5e363b421",
            "bloom": "0x00000000000000000000000000000000000000000000000000000000000000000000000000000000000000000000000000000000000000000000000000000000000000000000000000000000000000000000000000000000000000000000000000000000000000000000000000000000000000000000000000000000000000000000000000000000000000000000000000000000000000000000000000000000000000000000000000000000000000000000000000000000000000000000000000000000000000000000000000000000000000000000000000000000000000000000000000000000000000000000000000000000000000000000000000000000",
            "difficulty": "0x00",
            "number": "0x00",
            "gasLimit": "0x016345785d8a0000",
            "gasUsed": "0x00",
            "timestamp": "0x00",
            "extraData": "0x00",
            "mixHash": "0x0000000000000000000000000000000000000000000000000000000000000000",
            "nonce": "0x0000000000000000",
            "baseFeePerGas": "0x07",
            "withdrawalsRoot": "0x56e81f171bcc55a6ff8345e692c0f86e5b48e01b996cadc001622fb5e363b421",
            "blobGasUsed": "0x00",
            "excessBlobGas": "0x00",
            "parentBeaconBlockRoot": "0x0000000000000000000000000000000000000000000000000000000000000000",
            "hash": "0xc2da490436c53f55d6e98a56224b3feee37eb75d060b59e84b81269ed1e76e88"
        },
        "pre": {
            "0x000f3df6d732807ef1319fb7b8bb8522d0beac02": {
                "nonce": "0x01",
                "balance": "0x00",
                "code": "0x3373fffffffffffffffffffffffffffffffffffffffe14604d57602036146024575f5ffd5b5f35801560495762001fff810690815414603c575f5ffd5b62001fff01545f5260205ff35b5f5ffd5b62001fff42064281555f359062001fff015500",
                "storage": {}
            },
            "0xa94f5374fce5edbc8e2a8697c15331677e6ebf0b": {
                "nonce": "0x00",
                "balance": "0x010000000000",
                "code": "0x",
                "storage": {}
            },
            "0x0000000000000000000000000000000000000100": {
                "nonce": "0x00",
                "balance": "0x010000000000",
                "code": "0x366000602037602060003660206000720f3df6d732807ef1319fb7b8bb8522d0beac02620186a0f16000556000516001553d6002553d600060003e600051600355",
                "storage": {}
            },
            "0x0000000000000000000000000000000000001337": {
                "nonce": "0x00",
                "balance": "0x0ba1",
                "code": "0x720f3df6d732807ef1319fb7b8bb8522d0beac02ff",
                "storage": {}
            },
            "0x00000000000000000000000000000000000000cc": {
                "nonce": "0x00",
                "balance": "0x00",
                "code": "0x60006000600060006000611337620186a0f1720f3df6d732807ef1319fb7b8bb8522d0beac0231600055",
                "storage": {}
            }
        },
        "postState": {
            "0x00000000000000000000000000000000000000cc": {
                "nonce": "0x00",
                "balance": "0x00",
                "code": "0x60006000600060006000611337620186a0f1720f3df6d732807ef1319fb7b8bb8522d0beac0231600055",
                "storage": {
                    "0x00": "0x0ba1"
                }
            },
            "0x0000000000000000000000000000000000000100": {
                "nonce": "0x00",
                "balance": "0x010000000000",
                "code": "0x366000602037602060003660206000720f3df6d732807ef1319fb7b8bb8522d0beac02620186a0f16000556000516001553d6002553d600060003e600051600355",
                "storage": {}
            },
            "0x0000000000000000000000000000000000001337": {
                "nonce": "0x00",
                "balance": "0x00",
                "code": "0x720f3df6d732807ef1319fb7b8bb8522d0beac02ff",
                "storage": {}
            },
            "0x000f3df6d732807ef1319fb7b8bb8522d0beac02": {
                "nonce": "0x01",
                "balance": "0x0ba1",
                "code": "0x3373fffffffffffffffffffffffffffffffffffffffe14604d57602036146024575f5ffd5b5f35801560495762001fff810690815414603c575f5ffd5b62001fff01545f5260205ff35b5f5ffd5b62001fff42064281555f359062001fff015500",
                "storage": {
                    "0x0c": "0x0c"
                }
            },
            "0x2adc25665018aa1fe0e6bc666dac8fc2697ff9ba": {
                "nonce": "0x00",
                "balance": "0x027222",
                "code": "0x",
                "storage": {}
            },
            "0xa94f5374fce5edbc8e2a8697c15331677e6ebf0b": {
                "nonce": "0x01",
                "balance": "0xfffff7d8e4",
                "code": "0x",
                "storage": {}
            }
        },
        "lastblockhash": "0x915456b8efcc402cf8fe6274e31570bab9e03836dfb12290de42b7265c40ac53",
        "genesisRLP": "0xf90240f9023aa00000000000000000000000000000000000000000000000000000000000000000a01dcc4de8dec75d7aab85b567b6ccd41ad312451b948a7413f0a142fd40d49347940000000000000000000000000000000000000000a0f74b529b09622fafb3bef17c6ac4db558ce49779575eb589a3d2fb5831978ed4a056e81f171bcc55a6ff8345e692c0f86e5b48e01b996cadc001622fb5e363b421a056e81f171bcc55a6ff8345e692c0f86e5b48e01b996cadc001622fb5e363b421b9010000000000000000000000000000000000000000000000000000000000000000000000000000000000000000000000000000000000000000000000000000000000000000000000000000000000000000000000000000000000000000000000000000000000000000000000000000000000000000000000000000000000000000000000000000000000000000000000000000000000000000000000000000000000000000000000000000000000000000000000000000000000000000000000000000000000000000000000000000000000000000000000000000000000000000000000000000000000000000000000000000000000000000000000000000000000808088016345785d8a0000808000a0000000000000000000000000000000000000000000000000000000000000000088000000000000000007a056e81f171bcc55a6ff8345e692c0f86e5b48e01b996cadc001622fb5e363b4218080a00000000000000000000000000000000000000000000000000000000000000000c0c0c0",
        "blocks": [
            {
                "blockHeader": {
                    "parentHash": "0xc2da490436c53f55d6e98a56224b3feee37eb75d060b59e84b81269ed1e76e88",
                    "uncleHash": "0x1dcc4de8dec75d7aab85b567b6ccd41ad312451b948a7413f0a142fd40d49347",
                    "coinbase": "0x2adc25665018aa1fe0e6bc666dac8fc2697ff9ba",
                    "stateRoot": "0x8b60a547fec118d9d9cbe28845616fea83afd68b8bc0f081ee1a20b8f504244c",
                    "transactionsTrie": "0x4d6663825495d104e7f070bbc10499dfb274ca900190944012a86c76d13d829c",
                    "receiptTrie": "0x0f73e138b049ee79ec5e393c8b6aab99eaba82a90239eed2ee4f0923697d64de",
                    "bloom": "0x00000000000000000000000000000000000000000000000000000000000000000000000000000000000000000000000000000000000000000000000000000000000000000000000000000000000000000000000000000000000000000000000000000000000000000000000000000000000000000000000000000000000000000000000000000000000000000000000000000000000000000000000000000000000000000000000000000000000000000000000000000000000000000000000000000000000000000000000000000000000000000000000000000000000000000000000000000000000000000000000000000000000000000000000000000000",
                    "difficulty": "0x00",
                    "number": "0x01",
                    "gasLimit": "0x016345785d8a0000",
                    "gasUsed": "0xd0b6",
                    "timestamp": "0x0c",
                    "extraData": "0x",
                    "mixHash": "0x0000000000000000000000000000000000000000000000000000000000000000",
                    "nonce": "0x0000000000000000",
                    "baseFeePerGas": "0x07",
                    "withdrawalsRoot": "0x56e81f171bcc55a6ff8345e692c0f86e5b48e01b996cadc001622fb5e363b421",
                    "blobGasUsed": "0x00",
                    "excessBlobGas": "0x00",
                    "parentBeaconBlockRoot": "0x0000000000000000000000000000000000000000000000000000000000000000",
                    "hash": "0x915456b8efcc402cf8fe6274e31570bab9e03836dfb12290de42b7265c40ac53"
                },
                "transactions": [
                    {
                        "type": "0x00",
                        "chainId": "0x01",
                        "nonce": "0x00",
                        "gasPrice": "0x0a",
                        "gasLimit": "0x0186a0",
                        "to": "0x00000000000000000000000000000000000000cc",
                        "value": "0x00",
                        "data": "0x",
                        "v": "0x26",
                        "r": "0xdb42399e4a1e7e9734988e409e7afc0ed217480ddb02dea62c1c13a97abe967b",
                        "s": "0x06d9ddf0873edffb2e6f2ee4bca6348b0d103e5b9c0e79e7894ccd90c134ac11",
                        "sender": "0xa94f5374fce5edbc8e2a8697c15331677e6ebf0b"
                    }
                ],
                "uncleHeaders": [],
                "withdrawals": [],
                "rlp": "0xf902a5f9023ca0c2da490436c53f55d6e98a56224b3feee37eb75d060b59e84b81269ed1e76e88a01dcc4de8dec75d7aab85b567b6ccd41ad312451b948a7413f0a142fd40d49347942adc25665018aa1fe0e6bc666dac8fc2697ff9baa08b60a547fec118d9d9cbe28845616fea83afd68b8bc0f081ee1a20b8f504244ca04d6663825495d104e7f070bbc10499dfb274ca900190944012a86c76d13d829ca00f73e138b049ee79ec5e393c8b6aab99eaba82a90239eed2ee4f0923697d64deb9010000000000000000000000000000000000000000000000000000000000000000000000000000000000000000000000000000000000000000000000000000000000000000000000000000000000000000000000000000000000000000000000000000000000000000000000000000000000000000000000000000000000000000000000000000000000000000000000000000000000000000000000000000000000000000000000000000000000000000000000000000000000000000000000000000000000000000000000000000000000000000000000000000000000000000000000000000000000000000000000000000000000000000000000000000000000800188016345785d8a000082d0b60c80a0000000000000000000000000000000000000000000000000000000000000000088000000000000000007a056e81f171bcc55a6ff8345e692c0f86e5b48e01b996cadc001622fb5e363b4218080a00000000000000000000000000000000000000000000000000000000000000000f862f860800a830186a09400000000000000000000000000000000000000cc808026a0db42399e4a1e7e9734988e409e7afc0ed217480ddb02dea62c1c13a97abe967ba006d9ddf0873edffb2e6f2ee4bca6348b0d103e5b9c0e79e7894ccd90c134ac11c0c0",
                "blocknumber": "1"
            }
        ],
        "sealEngine": "NoProof",
        "_info": {
            "hash": "0xf50a4e1aee815837389691816eff5bd453df7a74060d1cd3c574fe667a76e337",
            "comment": "`execution-spec-tests` generated test",
            "filling-transition-tool": "evm version 1.14.8-unstable-766ce230-20240723",
            "description": "Test function documentation:\n\n    Tests that self destructing the beacon root address transfers actors balance correctly.",
            "url": "https://github.com/ethereum/execution-spec-tests/tree/v3.0.0/tests/cancun/eip4788_beacon_root/test_beacon_root_contract.py#L257",
            "reference-spec": "https://github.com/ethereum/EIPs/blob/master/EIPS/eip-4788.md",
            "reference-spec-version": "e7608fe8ac8a60934ca874f5aab7d5c1f4ff7782"
        }
    }
}