{
    "tests/cancun/eip7516_blobgasfee/test_blobgasfee_opcode.py::test_blobbasefee_before_fork[fork_ShanghaiToCancunAtTime15k-blockchain_test]": {
        "network": "ShanghaiToCancunAtTime15k",
        "genesisBlockHeader": {
            "parentHash": "0x0000000000000000000000000000000000000000000000000000000000000000",
            "uncleHash": "0x1dcc4de8dec75d7aab85b567b6ccd41ad312451b948a7413f0a142fd40d49347",
            "coinbase": "0x0000000000000000000000000000000000000000",
            "stateRoot": "0xa276cf132f2cc32ef1bec3b6c4db696a6fc1d318a3398ef608221648c8c9f044",
            "transactionsTrie": "0x56e81f171bcc55a6ff8345e692c0f86e5b48e01b996cadc001622fb5e363b421",
            "receiptTrie": "0x56e81f171bcc55a6ff8345e692c0f86e5b48e01b996cadc001622fb5e363b421",
            "bloom": "0x00000000000000000000000000000000000000000000000000000000000000000000000000000000000000000000000000000000000000000000000000000000000000000000000000000000000000000000000000000000000000000000000000000000000000000000000000000000000000000000000000000000000000000000000000000000000000000000000000000000000000000000000000000000000000000000000000000000000000000000000000000000000000000000000000000000000000000000000000000000000000000000000000000000000000000000000000000000000000000000000000000000000000000000000000000000",
            "difficulty": "0x00",
            "number": "0x00",
            "gasLimit": "0x016345785d8a0000",
            "gasUsed": "0x00",
            "timestamp": "0x00",
            "extraData": "0x00",
            "mixHash": "0x0000000000000000000000000000000000000000000000000000000000000000",
            "nonce": "0x0000000000000000",
            "baseFeePerGas": "0x07",
            "withdrawalsRoot": "0x56e81f171bcc55a6ff8345e692c0f86e5b48e01b996cadc001622fb5e363b421",
            "hash": "0x9e2e18b019e838c091f31c4104fa482e89ad9ff48ac03f7c35d8d78655d7b96e"
        },
        "pre": {
            "0x000f3df6d732807ef1319fb7b8bb8522d0beac02": {
                "nonce": "0x01",
                "balance": "0x00",
                "code": "0x3373fffffffffffffffffffffffffffffffffffffffe14604d57602036146024575f5ffd5b5f35801560495762001fff810690815414603c575f5ffd5b62001fff01545f5260205ff35b5f5ffd5b62001fff42064281555f359062001fff015500",
                "storage": {}
            },
            "0xa94f5374fce5edbc8e2a8697c15331677e6ebf0b": {
                "nonce": "0x00",
                "balance": "0x1d6329f1c35ca4bfabb9f5610000000000",
                "code": "0x",
                "storage": {}
            },
            "0x0000000000000000000000000000000000000100": {
                "nonce": "0x00",
                "balance": "0x00",
                "code": "0x6000600060006000600061020061fffff14355",
                "storage": {
                    "0x01": "0x01"
                }
            },
            "0x0000000000000000000000000000000000000200": {
                "nonce": "0x00",
                "balance": "0x00",
                "code": "0x4a00",
                "storage": {}
            }
        },
        "postState": {
            "0x0000000000000000000000000000000000000100": {
                "nonce": "0x00",
                "balance": "0x00",
                "code": "0x6000600060006000600061020061fffff14355",
                "storage": {}
            },
            "0x0000000000000000000000000000000000000200": {
                "nonce": "0x00",
                "balance": "0x00",
                "code": "0x4a00",
                "storage": {}
            },
            "0x000f3df6d732807ef1319fb7b8bb8522d0beac02": {
                "nonce": "0x01",
                "balance": "0x00",
                "code": "0x3373fffffffffffffffffffffffffffffffffffffffe14604d57602036146024575f5ffd5b5f35801560495762001fff810690815414603c575f5ffd5b62001fff01545f5260205ff35b5f5ffd5b62001fff42064281555f359062001fff015500",
                "storage": {}
            },
            "0x2adc25665018aa1fe0e6bc666dac8fc2697ff9ba": {
                "nonce": "0x00",
                "balance": "0x514547cf809e",
                "code": "0x",
                "storage": {}
            },
            "0xa94f5374fce5edbc8e2a8697c15331677e6ebf0b": {
                "nonce": "0x01",
                "balance": "0x1d6329f1c35ca4bfabb9f50fbab826f400",
                "code": "0x",
                "storage": {}
            }
        },
        "lastblockhash": "0xa62405b2d39cfbfab3b1df6faad02d83c1efdaabf6b3f5248669c1b8ab0315fd",
        "genesisRLP": "0xf9021df90217a00000000000000000000000000000000000000000000000000000000000000000a01dcc4de8dec75d7aab85b567b6ccd41ad312451b948a7413f0a142fd40d49347940000000000000000000000000000000000000000a0a276cf132f2cc32ef1bec3b6c4db696a6fc1d318a3398ef608221648c8c9f044a056e81f171bcc55a6ff8345e692c0f86e5b48e01b996cadc001622fb5e363b421a056e81f171bcc55a6ff8345e692c0f86e5b48e01b996cadc001622fb5e363b421b9010000000000000000000000000000000000000000000000000000000000000000000000000000000000000000000000000000000000000000000000000000000000000000000000000000000000000000000000000000000000000000000000000000000000000000000000000000000000000000000000000000000000000000000000000000000000000000000000000000000000000000000000000000000000000000000000000000000000000000000000000000000000000000000000000000000000000000000000000000000000000000000000000000000000000000000000000000000000000000000000000000000000000000000000000000000000808088016345785d8a0000808000a0000000000000000000000000000000000000000000000000000000000000000088000000000000000007a056e81f171bcc55a6ff8345e692c0f86e5b48e01b996cadc001622fb5e363b421c0c0c0",
        "blocks": [
            {
                "blockHeader": {
                    "parentHash": "0x9e2e18b019e838c091f31c4104fa482e89ad9ff48ac03f7c35d8d78655d7b96e",
                    "uncleHash": "0x1dcc4de8dec75d7aab85b567b6ccd41ad312451b948a7413f0a142fd40d49347",
                    "coinbase": "0x2adc25665018aa1fe0e6bc666dac8fc2697ff9ba",
                    "stateRoot": "0x0838eb6dc4f4ffb9a33a63abc063d4c62ed29dc154799dbaa0073cb1fdcd41f1",
                    "transactionsTrie": "0x0fe91412a1972bfc336f46726e2d5616b033ad0b7b58b5abb3cf596c18c936fc",
                    "receiptTrie": "0xfe1031d3afe85b36192c7e26089083ffcadf2a006869c9d3eaae3056dceaea4b",
                    "bloom": "0x00000000000000000000000000000000000000000000000000000000000000000000000000000000000000000000000000000000000000000000000000000000000000000000000000000000000000000000000000000000000000000000000000000000000000000000000000000000000000000000000000000000000000000000000000000000000000000000000000000000000000000000000000000000000000000000000000000000000000000000000000000000000000000000000000000000000000000000000000000000000000000000000000000000000000000000000000000000000000000000000000000000000000000000000000000000",
                    "difficulty": "0x00",
                    "number": "0x01",
                    "gasLimit": "0x016345785d8a0000",
                    "gasUsed": "0x015d0e",
                    "timestamp": "0x1d4c",
                    "extraData": "0x00",
                    "mixHash": "0x0000000000000000000000000000000000000000000000000000000000000000",
                    "nonce": "0x0000000000000000",
                    "baseFeePerGas": "0x07",
                    "withdrawalsRoot": "0x56e81f171bcc55a6ff8345e692c0f86e5b48e01b996cadc001622fb5e363b421",
                    "hash": "0xa62405b2d39cfbfab3b1df6faad02d83c1efdaabf6b3f5248669c1b8ab0315fd"
                },
                "transactions": [
                    {
                        "type": "0x00",
                        "chainId": "0x01",
                        "nonce": "0x00",
                        "gasPrice": "0x3b9aca00",
                        "gasLimit": "0x0f4240",
                        "to": "0x0000000000000000000000000000000000000100",
                        "value": "0x00",
                        "data": "0x",
                        "v": "0x25",
                        "r": "0x78bda1e1cb92b405bf1c49f292286f622ebd05ea52b0d7793e7e614c560c86d3",
                        "s": "0x7e9b6734e2203cd58a048e8b1750bea1d9ccdf10f5d612dad80550fdd2081c4a",
                        "sender": "0xa94f5374fce5edbc8e2a8697c15331677e6ebf0b"
                    }
                ],
                "uncleHeaders": [],
                "withdrawals": [],
                "rlp": "0xf90289f9021ca09e2e18b019e838c091f31c4104fa482e89ad9ff48ac03f7c35d8d78655d7b96ea01dcc4de8dec75d7aab85b567b6ccd41ad312451b948a7413f0a142fd40d49347942adc25665018aa1fe0e6bc666dac8fc2697ff9baa00838eb6dc4f4ffb9a33a63abc063d4c62ed29dc154799dbaa0073cb1fdcd41f1a00fe91412a1972bfc336f46726e2d5616b033ad0b7b58b5abb3cf596c18c936fca0fe1031d3afe85b36192c7e26089083ffcadf2a006869c9d3eaae3056dceaea4bb9010000000000000000000000000000000000000000000000000000000000000000000000000000000000000000000000000000000000000000000000000000000000000000000000000000000000000000000000000000000000000000000000000000000000000000000000000000000000000000000000000000000000000000000000000000000000000000000000000000000000000000000000000000000000000000000000000000000000000000000000000000000000000000000000000000000000000000000000000000000000000000000000000000000000000000000000000000000000000000000000000000000000000000000000000000000000800188016345785d8a000083015d0e821d4c00a0000000000000000000000000000000000000000000000000000000000000000088000000000000000007a056e81f171bcc55a6ff8345e692c0f86e5b48e01b996cadc001622fb5e363b421f866f86480843b9aca00830f4240940000000000000000000000000000000000000100808025a078bda1e1cb92b405bf1c49f292286f622ebd05ea52b0d7793e7e614c560c86d3a07e9b6734e2203cd58a048e8b1750bea1d9ccdf10f5d612dad80550fdd2081c4ac0c0",
                "blocknumber": "1"
            }
        ],
        "sealEngine": "NoProof",
        "_info": {
            "hash": "0xbd52608176c4e3450656eca1d4b96f4db2fe2200b89ddcdfeb94417cf8ad8822",
            "comment": "`execution-spec-tests` generated test",
            "filling-transition-tool": "evm version 1.14.8-unstable-766ce230-20240723",
            "description": "Test function documentation:\n\n    Tests that the BLOBBASEFEE opcode results on exception when called before the fork.",
            "url": "https://github.com/ethereum/execution-spec-tests/tree/v3.0.0/tests/cancun/eip7516_blobgasfee/test_blobgasfee_opcode.py#L164",
            "reference-spec": "https://github.com/ethereum/EIPs/blob/master/EIPS/eip-7516.md",
            "reference-spec-version": "2ade0452efe8124378f35284676ddfd16dd56ecd"
        }
    }
}