{
    "tests/cancun/eip7516_blobgasfee/test_blobgasfee_opcode.py::test_blobbasefee_out_of_gas[fork_Cancun-blockchain_test-enough_gas]": {
        "network": "Cancun",
        "genesisBlockHeader": {
            "parentHash": "0x0000000000000000000000000000000000000000000000000000000000000000",
            "uncleHash": "0x1dcc4de8dec75d7aab85b567b6ccd41ad312451b948a7413f0a142fd40d49347",
            "coinbase": "0x0000000000000000000000000000000000000000",
            "stateRoot": "0x39f1e6826a210f04e4a3779a73bc856fa90786d2f8bdeb6162c9e7da2e714758",
            "transactionsTrie": "0x56e81f171bcc55a6ff8345e692c0f86e5b48e01b996cadc001622fb5e363b421",
            "receiptTrie": "0x56e81f171bcc55a6ff8345e692c0f86e5b48e01b996cadc001622fb5e363b421",
            "bloom": "0x00000000000000000000000000000000000000000000000000000000000000000000000000000000000000000000000000000000000000000000000000000000000000000000000000000000000000000000000000000000000000000000000000000000000000000000000000000000000000000000000000000000000000000000000000000000000000000000000000000000000000000000000000000000000000000000000000000000000000000000000000000000000000000000000000000000000000000000000000000000000000000000000000000000000000000000000000000000000000000000000000000000000000000000000000000000",
            "difficulty": "0x00",
            "number": "0x00",
            "gasLimit": "0x016345785d8a0000",
            "gasUsed": "0x00",
            "timestamp": "0x00",
            "extraData": "0x00",
            "mixHash": "0x0000000000000000000000000000000000000000000000000000000000000000",
            "nonce": "0x0000000000000000",
            "baseFeePerGas": "0x07",
            "withdrawalsRoot": "0x56e81f171bcc55a6ff8345e692c0f86e5b48e01b996cadc001622fb5e363b421",
            "blobGasUsed": "0x00",
            "excessBlobGas": "0x00",
            "parentBeaconBlockRoot": "0x0000000000000000000000000000000000000000000000000000000000000000",
            "hash": "0x59b8eb12444d2b7faac1fb95c2939d923f8ddc3541893a7f8e1256f34a37b918"
        },
        "pre": {
            "0x000f3df6d732807ef1319fb7b8bb8522d0beac02": {
                "nonce": "0x01",
                "balance": "0x00",
                "code": "0x3373fffffffffffffffffffffffffffffffffffffffe14604d57602036146024575f5ffd5b5f35801560495762001fff810690815414603c575f5ffd5b62001fff01545f5260205ff35b5f5ffd5b62001fff42064281555f359062001fff015500",
                "storage": {}
            },
            "0xa94f5374fce5edbc8e2a8697c15331677e6ebf0b": {
                "nonce": "0x00",
                "balance": "0x1d6329f1c35ca4bfabb9f5610000000000",
                "code": "0x",
                "storage": {}
            },
            "0x0000000000000000000000000000000000000100": {
                "nonce": "0x00",
                "balance": "0x00",
                "code": "0x600060006000600060006102006002f14355",
                "storage": {}
            },
            "0x0000000000000000000000000000000000000200": {
                "nonce": "0x00",
                "balance": "0x00",
                "code": "0x4a00",
                "storage": {}
            }
        },
        "postState": {
            "0x0000000000000000000000000000000000000100": {
                "nonce": "0x00",
                "balance": "0x00",
                "code": "0x600060006000600060006102006002f14355",
                "storage": {
                    "0x01": "0x01"
                }
            },
            "0x0000000000000000000000000000000000000200": {
                "nonce": "0x00",
                "balance": "0x00",
                "code": "0x4a00",
                "storage": {}
            },
            "0x000f3df6d732807ef1319fb7b8bb8522d0beac02": {
                "nonce": "0x01",
                "balance": "0x00",
                "code": "0x3373fffffffffffffffffffffffffffffffffffffffe14604d57602036146024575f5ffd5b5f35801560495762001fff810690815414603c575f5ffd5b62001fff01545f5260205ff35b5f5ffd5b62001fff42064281555f359062001fff015500",
                "storage": {
                    "0x03e8": "0x03e8"
                }
            },
            "0x2adc25665018aa1fe0e6bc666dac8fc2697ff9ba": {
                "nonce": "0x00",
                "balance": "0x29962e5cffb5",
                "code": "0x",
                "storage": {}
            },
            "0xa94f5374fce5edbc8e2a8697c15331677e6ebf0b": {
                "nonce": "0x01",
                "balance": "0x1d6329f1c35ca4bfabb9f53769d19e1e00",
                "code": "0x",
                "storage": {}
            }
        },
        "lastblockhash": "0x22b098b8bb93629e5130af79e8ee314a446db44d4859a590913920aa977d675a",
        "genesisRLP": "0xf90240f9023aa00000000000000000000000000000000000000000000000000000000000000000a01dcc4de8dec75d7aab85b567b6ccd41ad312451b948a7413f0a142fd40d49347940000000000000000000000000000000000000000a039f1e6826a210f04e4a3779a73bc856fa90786d2f8bdeb6162c9e7da2e714758a056e81f171bcc55a6ff8345e692c0f86e5b48e01b996cadc001622fb5e363b421a056e81f171bcc55a6ff8345e692c0f86e5b48e01b996cadc001622fb5e363b421b9010000000000000000000000000000000000000000000000000000000000000000000000000000000000000000000000000000000000000000000000000000000000000000000000000000000000000000000000000000000000000000000000000000000000000000000000000000000000000000000000000000000000000000000000000000000000000000000000000000000000000000000000000000000000000000000000000000000000000000000000000000000000000000000000000000000000000000000000000000000000000000000000000000000000000000000000000000000000000000000000000000000000000000000000000000000000808088016345785d8a0000808000a0000000000000000000000000000000000000000000000000000000000000000088000000000000000007a056e81f171bcc55a6ff8345e692c0f86e5b48e01b996cadc001622fb5e363b4218080a00000000000000000000000000000000000000000000000000000000000000000c0c0c0",
        "blocks": [
            {
                "blockHeader": {
                    "parentHash": "0x59b8eb12444d2b7faac1fb95c2939d923f8ddc3541893a7f8e1256f34a37b918",
                    "uncleHash": "0x1dcc4de8dec75d7aab85b567b6ccd41ad312451b948a7413f0a142fd40d49347",
                    "coinbase": "0x2adc25665018aa1fe0e6bc666dac8fc2697ff9ba",
                    "stateRoot": "0xedad3a1484b027e05084bdde9f91771a35439ba2dd9a9a2917bc511f88f5471e",
                    "transactionsTrie": "0x0fe91412a1972bfc336f46726e2d5616b033ad0b7b58b5abb3cf596c18c936fc",
                    "receiptTrie": "0x029086b067b48abbd5d8cdade9e4161e288342af5850ca5c07d626db2c52c1b6",
                    "bloom": "0x00000000000000000000000000000000000000000000000000000000000000000000000000000000000000000000000000000000000000000000000000000000000000000000000000000000000000000000000000000000000000000000000000000000000000000000000000000000000000000000000000000000000000000000000000000000000000000000000000000000000000000000000000000000000000000000000000000000000000000000000000000000000000000000000000000000000000000000000000000000000000000000000000000000000000000000000000000000000000000000000000000000000000000000000000000000",
                    "difficulty": "0x00",
                    "number": "0x01",
                    "gasLimit": "0x016345785d8a0000",
                    "gasUsed": "0xb29d",
                    "timestamp": "0x03e8",
                    "extraData": "0x00",
                    "mixHash": "0x0000000000000000000000000000000000000000000000000000000000000000",
                    "nonce": "0x0000000000000000",
                    "baseFeePerGas": "0x07",
                    "withdrawalsRoot": "0x56e81f171bcc55a6ff8345e692c0f86e5b48e01b996cadc001622fb5e363b421",
                    "blobGasUsed": "0x00",
                    "excessBlobGas": "0x00",
                    "parentBeaconBlockRoot": "0x0000000000000000000000000000000000000000000000000000000000000000",
                    "hash": "0x22b098b8bb93629e5130af79e8ee314a446db44d4859a590913920aa977d675a"
                },
                "transactions": [
                    {
                        "type": "0x00",
                        "chainId": "0x01",
                        "nonce": "0x00",
                        "gasPrice": "0x3b9aca00",
                        "gasLimit": "0x0f4240",
                        "to": "0x0000000000000000000000000000000000000100",
                        "value": "0x00",
                        "data": "0x",
                        "v": "0x25",
                        "r": "0x78bda1e1cb92b405bf1c49f292286f622ebd05ea52b0d7793e7e614c560c86d3",
                        "s": "0x7e9b6734e2203cd58a048e8b1750bea1d9ccdf10f5d612dad80550fdd2081c4a",
                        "sender": "0xa94f5374fce5edbc8e2a8697c15331677e6ebf0b"
                    }
                ],
                "uncleHeaders": [],
                "withdrawals": [],
                "rlp": "0xf902abf9023ea059b8eb12444d2b7faac1fb95c2939d923f8ddc3541893a7f8e1256f34a37b918a01dcc4de8dec75d7aab85b567b6ccd41ad312451b948a7413f0a142fd40d49347942adc25665018aa1fe0e6bc666dac8fc2697ff9baa0edad3a1484b027e05084bdde9f91771a35439ba2dd9a9a2917bc511f88f5471ea00fe91412a1972bfc336f46726e2d5616b033ad0b7b58b5abb3cf596c18c936fca0029086b067b48abbd5d8cdade9e4161e288342af5850ca5c07d626db2c52c1b6b9010000000000000000000000000000000000000000000000000000000000000000000000000000000000000000000000000000000000000000000000000000000000000000000000000000000000000000000000000000000000000000000000000000000000000000000000000000000000000000000000000000000000000000000000000000000000000000000000000000000000000000000000000000000000000000000000000000000000000000000000000000000000000000000000000000000000000000000000000000000000000000000000000000000000000000000000000000000000000000000000000000000000000000000000000000000000800188016345785d8a000082b29d8203e800a0000000000000000000000000000000000000000000000000000000000000000088000000000000000007a056e81f171bcc55a6ff8345e692c0f86e5b48e01b996cadc001622fb5e363b4218080a00000000000000000000000000000000000000000000000000000000000000000f866f86480843b9aca00830f4240940000000000000000000000000000000000000100808025a078bda1e1cb92b405bf1c49f292286f622ebd05ea52b0d7793e7e614c560c86d3a07e9b6734e2203cd58a048e8b1750bea1d9ccdf10f5d612dad80550fdd2081c4ac0c0",
                "blocknumber": "1"
            }
        ],
        "sealEngine": "NoProof",
        "_info": {
            "hash": "0xb74c1be9dd67b1943ccbe7bd8cdd6fd6d2bf70583dc17d3d1180cf59e4a0800d",
            "comment": "`execution-spec-tests` generated test",
            "filling-transition-tool": "evm version 1.14.8-unstable-766ce230-20240723",
            "description": "Test function documentation:\n\n    Tests that the BLOBBASEFEE opcode fails with insufficient gas.",
            "url": "https://github.com/ethereum/execution-spec-tests/tree/v3.0.0/tests/cancun/eip7516_blobgasfee/test_blobgasfee_opcode.py#L131",
            "reference-spec": "https://github.com/ethereum/EIPs/blob/master/EIPS/eip-7516.md",
            "reference-spec-version": "2ade0452efe8124378f35284676ddfd16dd56ecd"
        }
    },
    "tests/cancun/eip7516_blobgasfee/test_blobgasfee_opcode.py::test_blobbasefee_out_of_gas[fork_Cancun-blockchain_test-out_of_gas]": {
        "network": "Cancun",
        "genesisBlockHeader": {
            "parentHash": "0x0000000000000000000000000000000000000000000000000000000000000000",
            "uncleHash": "0x1dcc4de8dec75d7aab85b567b6ccd41ad312451b948a7413f0a142fd40d49347",
            "coinbase": "0x0000000000000000000000000000000000000000",
            "stateRoot": "0x03cf5ccdc3c1a431a0b3ead7f911bba5cb50d8da8c79458148a1ea4da04b2ab9",
            "transactionsTrie": "0x56e81f171bcc55a6ff8345e692c0f86e5b48e01b996cadc001622fb5e363b421",
            "receiptTrie": "0x56e81f171bcc55a6ff8345e692c0f86e5b48e01b996cadc001622fb5e363b421",
            "bloom": "0x00000000000000000000000000000000000000000000000000000000000000000000000000000000000000000000000000000000000000000000000000000000000000000000000000000000000000000000000000000000000000000000000000000000000000000000000000000000000000000000000000000000000000000000000000000000000000000000000000000000000000000000000000000000000000000000000000000000000000000000000000000000000000000000000000000000000000000000000000000000000000000000000000000000000000000000000000000000000000000000000000000000000000000000000000000000",
            "difficulty": "0x00",
            "number": "0x00",
            "gasLimit": "0x016345785d8a0000",
            "gasUsed": "0x00",
            "timestamp": "0x00",
            "extraData": "0x00",
            "mixHash": "0x0000000000000000000000000000000000000000000000000000000000000000",
            "nonce": "0x0000000000000000",
            "baseFeePerGas": "0x07",
            "withdrawalsRoot": "0x56e81f171bcc55a6ff8345e692c0f86e5b48e01b996cadc001622fb5e363b421",
            "blobGasUsed": "0x00",
            "excessBlobGas": "0x00",
            "parentBeaconBlockRoot": "0x0000000000000000000000000000000000000000000000000000000000000000",
            "hash": "0xb75555e6b9ff6f2dfb4535e383e207f68d5272d63a09d9c4daa017cb9688fcb3"
        },
        "pre": {
            "0x000f3df6d732807ef1319fb7b8bb8522d0beac02": {
                "nonce": "0x01",
                "balance": "0x00",
                "code": "0x3373fffffffffffffffffffffffffffffffffffffffe14604d57602036146024575f5ffd5b5f35801560495762001fff810690815414603c575f5ffd5b62001fff01545f5260205ff35b5f5ffd5b62001fff42064281555f359062001fff015500",
                "storage": {}
            },
            "0xa94f5374fce5edbc8e2a8697c15331677e6ebf0b": {
                "nonce": "0x00",
                "balance": "0x1d6329f1c35ca4bfabb9f5610000000000",
                "code": "0x",
                "storage": {}
            },
            "0x0000000000000000000000000000000000000100": {
                "nonce": "0x00",
                "balance": "0x00",
                "code": "0x600060006000600060006102006001f14355",
                "storage": {}
            },
            "0x0000000000000000000000000000000000000200": {
                "nonce": "0x00",
                "balance": "0x00",
                "code": "0x4a00",
                "storage": {}
            }
        },
        "postState": {
            "0x0000000000000000000000000000000000000100": {
                "nonce": "0x00",
                "balance": "0x00",
                "code": "0x600060006000600060006102006001f14355",
                "storage": {}
            },
            "0x0000000000000000000000000000000000000200": {
                "nonce": "0x00",
                "balance": "0x00",
                "code": "0x4a00",
                "storage": {}
            },
            "0x000f3df6d732807ef1319fb7b8bb8522d0beac02": {
                "nonce": "0x01",
                "balance": "0x00",
                "code": "0x3373fffffffffffffffffffffffffffffffffffffffe14604d57602036146024575f5ffd5b5f35801560495762001fff810690815414603c575f5ffd5b62001fff01545f5260205ff35b5f5ffd5b62001fff42064281555f359062001fff015500",
                "storage": {
                    "0x03e8": "0x03e8"
                }
            },
            "0x2adc25665018aa1fe0e6bc666dac8fc2697ff9ba": {
                "nonce": "0x00",
                "balance": "0x177c9e55fde0",
                "code": "0x",
                "storage": {}
            },
            "0xa94f5374fce5edbc8e2a8697c15331677e6ebf0b": {
                "nonce": "0x01",
                "balance": "0x1d6329f1c35ca4bfabb9f5498361a74000",
                "code": "0x",
                "storage": {}
            }
        },
        "lastblockhash": "0x8ec89318352b18b54e7c0a1b9eafdbdac6db1585c9178ffddde21f9f7bd13c4e",
        "genesisRLP": "0xf90240f9023aa00000000000000000000000000000000000000000000000000000000000000000a01dcc4de8dec75d7aab85b567b6ccd41ad312451b948a7413f0a142fd40d49347940000000000000000000000000000000000000000a003cf5ccdc3c1a431a0b3ead7f911bba5cb50d8da8c79458148a1ea4da04b2ab9a056e81f171bcc55a6ff8345e692c0f86e5b48e01b996cadc001622fb5e363b421a056e81f171bcc55a6ff8345e692c0f86e5b48e01b996cadc001622fb5e363b421b9010000000000000000000000000000000000000000000000000000000000000000000000000000000000000000000000000000000000000000000000000000000000000000000000000000000000000000000000000000000000000000000000000000000000000000000000000000000000000000000000000000000000000000000000000000000000000000000000000000000000000000000000000000000000000000000000000000000000000000000000000000000000000000000000000000000000000000000000000000000000000000000000000000000000000000000000000000000000000000000000000000000000000000000000000000000000808088016345785d8a0000808000a0000000000000000000000000000000000000000000000000000000000000000088000000000000000007a056e81f171bcc55a6ff8345e692c0f86e5b48e01b996cadc001622fb5e363b4218080a00000000000000000000000000000000000000000000000000000000000000000c0c0c0",
        "blocks": [
            {
                "blockHeader": {
                    "parentHash": "0xb75555e6b9ff6f2dfb4535e383e207f68d5272d63a09d9c4daa017cb9688fcb3",
                    "uncleHash": "0x1dcc4de8dec75d7aab85b567b6ccd41ad312451b948a7413f0a142fd40d49347",
                    "coinbase": "0x2adc25665018aa1fe0e6bc666dac8fc2697ff9ba",
                    "stateRoot": "0x02926403247b833cb9e8ca6dbc1177faa9033adc76a7a12074f9a3a1f25181c3",
                    "transactionsTrie": "0x0fe91412a1972bfc336f46726e2d5616b033ad0b7b58b5abb3cf596c18c936fc",
                    "receiptTrie": "0x8a464492414faf91bfcbcf3d97be0aac9f570e7c2792cc63eda61d7be8768d30",
                    "bloom": "0x00000000000000000000000000000000000000000000000000000000000000000000000000000000000000000000000000000000000000000000000000000000000000000000000000000000000000000000000000000000000000000000000000000000000000000000000000000000000000000000000000000000000000000000000000000000000000000000000000000000000000000000000000000000000000000000000000000000000000000000000000000000000000000000000000000000000000000000000000000000000000000000000000000000000000000000000000000000000000000000000000000000000000000000000000000000",
                    "difficulty": "0x00",
                    "number": "0x01",
                    "gasLimit": "0x016345785d8a0000",
                    "gasUsed": "0x64e0",
                    "timestamp": "0x03e8",
                    "extraData": "0x00",
                    "mixHash": "0x0000000000000000000000000000000000000000000000000000000000000000",
                    "nonce": "0x0000000000000000",
                    "baseFeePerGas": "0x07",
                    "withdrawalsRoot": "0x56e81f171bcc55a6ff8345e692c0f86e5b48e01b996cadc001622fb5e363b421",
                    "blobGasUsed": "0x00",
                    "excessBlobGas": "0x00",
                    "parentBeaconBlockRoot": "0x0000000000000000000000000000000000000000000000000000000000000000",
                    "hash": "0x8ec89318352b18b54e7c0a1b9eafdbdac6db1585c9178ffddde21f9f7bd13c4e"
                },
                "transactions": [
                    {
                        "type": "0x00",
                        "chainId": "0x01",
                        "nonce": "0x00",
                        "gasPrice": "0x3b9aca00",
                        "gasLimit": "0x0f4240",
                        "to": "0x0000000000000000000000000000000000000100",
                        "value": "0x00",
                        "data": "0x",
                        "v": "0x25",
                        "r": "0x78bda1e1cb92b405bf1c49f292286f622ebd05ea52b0d7793e7e614c560c86d3",
                        "s": "0x7e9b6734e2203cd58a048e8b1750bea1d9ccdf10f5d612dad80550fdd2081c4a",
                        "sender": "0xa94f5374fce5edbc8e2a8697c15331677e6ebf0b"
                    }
                ],
                "uncleHeaders": [],
                "withdrawals": [],
                "rlp": "0xf902abf9023ea0b75555e6b9ff6f2dfb4535e383e207f68d5272d63a09d9c4daa017cb9688fcb3a01dcc4de8dec75d7aab85b567b6ccd41ad312451b948a7413f0a142fd40d49347942adc25665018aa1fe0e6bc666dac8fc2697ff9baa002926403247b833cb9e8ca6dbc1177faa9033adc76a7a12074f9a3a1f25181c3a00fe91412a1972bfc336f46726e2d5616b033ad0b7b58b5abb3cf596c18c936fca08a464492414faf91bfcbcf3d97be0aac9f570e7c2792cc63eda61d7be8768d30b9010000000000000000000000000000000000000000000000000000000000000000000000000000000000000000000000000000000000000000000000000000000000000000000000000000000000000000000000000000000000000000000000000000000000000000000000000000000000000000000000000000000000000000000000000000000000000000000000000000000000000000000000000000000000000000000000000000000000000000000000000000000000000000000000000000000000000000000000000000000000000000000000000000000000000000000000000000000000000000000000000000000000000000000000000000000000800188016345785d8a00008264e08203e800a0000000000000000000000000000000000000000000000000000000000000000088000000000000000007a056e81f171bcc55a6ff8345e692c0f86e5b48e01b996cadc001622fb5e363b4218080a00000000000000000000000000000000000000000000000000000000000000000f866f86480843b9aca00830f4240940000000000000000000000000000000000000100808025a078bda1e1cb92b405bf1c49f292286f622ebd05ea52b0d7793e7e614c560c86d3a07e9b6734e2203cd58a048e8b1750bea1d9ccdf10f5d612dad80550fdd2081c4ac0c0",
                "blocknumber": "1"
            }
        ],
        "sealEngine": "NoProof",
        "_info": {
            "hash": "0x032f27b3fb58bd19669a424b37ee01fa6ef96e252a33f4390167b29145e02ebe",
            "comment": "`execution-spec-tests` generated test",
            "filling-transition-tool": "evm version 1.14.8-unstable-766ce230-20240723",
            "description": "Test function documentation:\n\n    Tests that the BLOBBASEFEE opcode fails with insufficient gas.",
            "url": "https://github.com/ethereum/execution-spec-tests/tree/v3.0.0/tests/cancun/eip7516_blobgasfee/test_blobgasfee_opcode.py#L131",
            "reference-spec": "https://github.com/ethereum/EIPs/blob/master/EIPS/eip-7516.md",
            "reference-spec-version": "2ade0452efe8124378f35284676ddfd16dd56ecd"
        }
    }
}